:020000040800F2
:1000000000000320A51E0008F9090008FB090008EC
:10001000FD090008FF090008010A000800000000AF
:10002000000000000000000000000000030A0008BB
:10003000050A000800000000070A0008090A000875
:10004000F51E0008F51E0008F51E0008F51E000844
:10005000F51E0008F51E0008F51E0008F51E000834
:10006000F51E0008F51E0008F51E0008F51E000824
:10007000F51E0008F51E0008F51E0008F51E000814
:10008000F51E0008F51E0008F51E0008F51E000804
:10009000F51E0008F51E0008F51E0008F51E0008F4
:1000A000F51E0008F51E0008F51E0008F51E0008E4
:1000B000F51E0008F51E0008F51E0008F51E0008D4
:1000C000F51E0008F51E0008F51E0008F51E0008C4
:1000D000F51E0008F51E0008F51E0008F51E0008B4
:1000E000F51E0008F51E0008F51E0008F51E0008A4
:1000F000F51E0008F51E0008F51E0008F51E000894
:10010000F51E0008F51E0008F51E0008F51E000883
:10011000F51E0008F51E0008F51E0008F51E000873
:10012000F51E0008F51E0008F51E0008F51E000863
:10013000F51E0008F51E0008F51E0008F51E000853
:10014000F51E0008F51E0008F51E0008F51E000843
:10015000F51E0008F51E0008F51E0008F51E000833
:10016000F51E0008F51E0008F51E0008F51E000823
:10017000F51E0008F51E0008F51E0008000000002E
:10018000F51E0008F51E0008F51E0008F51E000803
:10019000F51E0008F51E0008F51E0008F51E0008F3
:0C01A000F51E0008F51E0008F51E000802
:1001AC0010B5054C237833B9044B13B10448AFF3A5
:1001BC0000800123237010BD0C0000200000000003
:1001CC00501F000808B5034B1BB103490348AFF39C
:1001DC00008008BD0000000010000020501F000827
:1001EC0053B94AB9002908BF00281CBF4FF0FF3192
:1001FC004FF0FF3000F074B9ADF1080C6DE904CE8E
:10020C0000F006F8DDF804E0DDE9022304B07047E5
:10021C002DE9F047089D04468E46002B4DD18A42AD
:10022C00944669D9B2FA82F252B101FA02F3C2F1E0
:10023C00200120FA01F10CFA02FC41EA030E944071
:10024C004FEA1C48210CBEFBF8F61FFA8CF708FB92
:10025C0016E341EA034306FB07F199420AD91CEB6A
:10026C00030306F1FF3080F01F81994240F21C819C
:10027C00023E63445B1AA4B2B3FBF8F008FB1033E4
:10028C0044EA034400FB07F7A7420AD91CEB040419
:10029C0000F1FF3380F00A81A74240F207816444E9
:1002AC00023840EA0640E41B00261DB1D44000236E
:1002BC00C5E900433146BDE8F0878B4209D9002DD2
:1002CC0000F0EF800026C5E9000130463146BDE85C
:1002DC00F087B3FA83F6002E4AD18B4202D38242C6
:1002EC0000F2F980841A61EB030301209E46002D75
:1002FC00E0D0C5E9004EDDE702B9FFDEB2FA82F2CA
:10030C00002A40F09280A1EB0C014FEA1C471FFA27
:10031C008CFE0126200CB1FBF7F307FB131140EA0E
:10032C0001410EFB03F0884208D91CEB010103F1DB
:10033C00FF3802D2884200F2CB804346091AA4B29D
:10034C00B1FBF7F007FB101144EA01440EFB00FE71
:10035C00A64508D91CEB040400F1FF3102D2A645D6
:10036C0000F2BB800846A4EB0E0440EA03409CE775
:10037C00C6F12007B34022FA07FC4CEA030C20FA22
:10038C0007F401FA06F31C43F9404FEA1C4900FA42
:10039C0006F3B1FBF9F8200C1FFA8CFE09FB1811BF
:1003AC0040EA014108FB0EF0884202FA06F20BD932
:1003BC001CEB010108F1FF3A80F08880884240F282
:1003CC008580A8F102086144091AA4B2B1FBF9F0C6
:1003DC0009FB101144EA014100FB0EFE8E4508D9C1
:1003EC001CEB010100F1FF346CD28E456AD9023846
:1003FC00614440EA0840A0FB0294A1EB0E01A1422B
:10040C00C846A64656D353D05DB1B3EB080261EB98
:10041C000E0101FA07F722FA06F3F1401F43C5E972
:10042C00007100263146BDE8F087C2F12003D840A8
:10043C000CFA02FC21FA03F3914001434FEA1C47EA
:10044C001FFA8CFEB3FBF7F007FB10360B0C43EADC
:10045C00064300FB0EF69E4204FA02F408D91CEB8C
:10046C00030300F1FF382FD29E422DD9023863448A
:10047C009B1B89B2B3FBF7F607FB163341EA03412A
:10048C0006FB0EF38B4208D91CEB010106F1FF3879
:10049C0016D28B4214D9023E6144C91A46EA004670
:1004AC0038E72E46284605E70646E3E61846F8E602
:1004BC004B45A9D2B9EB020864EB0C0E0138A3E74B
:1004CC004646EAE7204694E74046D1E7D0467BE72C
:1004DC00023B614432E7304609E76444023842E7A4
:1004EC00704700BFF0B58DB00024079408940994B0
:1004FC000A940B940194394B1A6B42F004021A6360
:10050C001A6B02F004020192019A02941A6B42F0E7
:10051C0080021A631A6B02F080020292029A039410
:10052C001A6B42F001021A631A6B02F00102039279
:10053C00039A04941A6B42F002021A631A6B02F0CB
:10054C0002020492049A05941A6B42F008021A6390
:10055C001A6B02F008020592059A06941A6B42F087
:10056C0040021A631B6B03F040030693069B1C4F5F
:10057C00224644F28101384600F01EFE194D2246F7
:10058C004021284600F018FE4FF4005307934FF417
:10059C0088130893099407A9134800F00FFD44F23F
:1005AC00810307930126089609940A9407A93846F3
:1005BC0000F004FD40230793089609940A9407A9B8
:1005CC00284600F0FBFC802307930894099407A9A4
:1005DC00284600F0F3FC0DB0F0BD00BF003802401F
:1005EC0000040240001802400008024072B6FEE708
:1005FC0010B51448144B0360144B00221A70802160
:10060C005970E1219970DA701A715A7143604FF484
:10061C00000383600E4BC3600E4B036140F2F45336
:10062C00436100F06BFC58B90B4C3822002120467A
:10063C0001F080FC212323604FF44003636110BD63
:10064C00FFF7D4FFA80100200080024068010020C1
:10065C00C8000020280000207001002008B50A48BE
:10066C000A4B03604FF4E133436000238360C360A3
:10067C0003610C2242618361C36101F007FA00B986
:10068C0008BDFFF7B3FF00BF64070020004800401F
:10069C0008B50B484FF0A0430360042343600222CB
:1006AC00C2600023036182610122C2610362436262
:1006BC00C262036300F08FFD00B908BDFFF796FF1F
:1006CC005802002000B595B03022002108A801F096
:1006DC0031FC002303930493059306930793019332
:1006EC00204A116C41F080511164126C02F080525E
:1006FC000192019A02931C4B1A6842F440421A6010
:10070C001B6803F440430293029B012308934FF4AC
:10071C00A023099302230E934FF480020F9204221C
:10072C001092A822119212930723139308A800F099
:10073C00E9FD98B90F230393022304930023059337
:10074C004FF4A05306934FF480530793052103A84D
:10075C0001F03EF820B915B05DF804FBFFF746FF39
:10076C00FFF744FF003802400070004008B500F06D
:10077C0079F9FFF7A7FFFFF7B5FEFFF739FFFFF792
:10078C006DFFFFF785FF4FF48041044800F01AFD20
:10079C004FF47A7000F092F9F5E700BF00040240C4
:1007AC0082B0002100910B4B5A6C42F480425A6487
:1007BC005A6C02F480420092009A01911A6C42F039
:1007CC0080521A641B6C03F080530193019B02B09E
:1007DC00704700BF00380240F0B58DB0002307937E
:1007EC00089309930A930B9302683D4B9A4201D0EC
:1007FC000DB0F0BD00240094A3F590431A6B42F0A9
:10080C0000721A631A6B02F000720092009A019443
:10081C001A6B42F080621A631A6B02F080620192CA
:10082C00019A02941A6B42F000621A631A6B02F07E
:10083C0000620292029A03941A6B42F004021A6349
:10084C001A6B02F004020392039A04941A6B42F09E
:10085C0001021A631A6B02F001020492049A0594C5
:10086C001A6B42F002021A631A6B02F00202059232
:10087C00059A06941A6B42F040021A631B6B03F044
:10088C0040030693069B32230793022708970326FF
:10089C000A960B250B9507A9124800F08FFB8623AF
:1008AC000793089709940A960B9507A90E4800F030
:1008BC0085FB4FF400530793089709940A960B9500
:1008CC0007A90A4800F07AFB4FF4205307930897C6
:1008DC0009940A960B9507A9054800F06FFB87E76A
:1008EC000080024000080240000002400004024068
:1008FC000018024000B589B00023039304930593BC
:10090C00069307930268154B9A4202D009B05DF822
:10091C0004FB0021019103F5F8331A6C42F4802298
:10092C001A641A6C02F480220192019A02911A6BD9
:10093C0042F008021A631B6B03F008030293029B3C
:10094C004FF440730393022304930323069307236A
:10095C00079303A9024800F031FBD7E70048004099
:10096C00000C024070B588B00023039304930593E8
:10097C00069307930368B3F1A04F01D008B070BD84
:10098C0000250195174C236B43F001032363236B64
:10099C0003F001030193019B4FF4E85303930223EB
:1009AC000493032306930A2307930F4E03A930469F
:1009BC0000F004FB4FF4007303930495059503A911
:1009CC00304600F0FBFA636B43F0800363630295DF
:1009DC00636C43F480436364636C03F4804302935D
:1009EC00029BCBE70038024000000240FEE7FEE726
:1009FC00FEE7FEE7FEE770477047704708B500F06A
:100A0C004BF808BD034AD2F8883043F47003C2F89F
:100A1C008830704700ED00E010B504460E4B187896
:100A2C004FF47A73B3FBF0F30C4A1068B0FBF3F09D
:100A3C0000F0A2F868B90F2C01D901200AE00022BD
:100A4C0021464FF0FF3000F05FF8054B1C60002092
:100A5C0000E0012010BD00BF0400002000000020B9
:100A6C000800002008B50B4B1A6842F400721A609B
:100A7C001A6842F480621A601A6842F480721A6032
:100A8C00032000F02FF80020FFF7C6FFFFF788FEC9
:100A9C00002008BD003C0240034A1168034B1B7840
:100AAC000B441360704700BFA8070020040000200F
:100ABC00014B1868704700BFA807002038B50446E2
:100ACC00FFF7F6FF0546B4F1FF3F02D0044B1B784D
:100ADC001C44FFF7EDFF401BA042FAD338BD00BF0A
:100AEC0004000020074AD36823F4E0631B041B0CAA
:100AFC00000200F4E060034343F0BF6343F40033AF
:100B0C00D360704700ED00E000B5194BDB68C3F310
:100B1C000223C3F1070CBCF1040F28BF4FF0040CE7
:100B2C0003F1040EBEF1060F18D9033B4FF0FF3E44
:100B3C000EFA0CFC21EA0C0199400EFA03F322EA9E
:100B4C000303194300280BDB0901C9B200F1604013
:100B5C0000F5614080F800135DF804FB0023E5E725
:100B6C0000F00F000901C9B2024B1954F4E700BFA1
:100B7C0000ED00E014ED00E00138B0F1807F0BD205
:100B8C004FF0E0235861054AF02182F82310002031
:100B9C00986107221A6170470120704700ED00E050
:100BAC005079137943EA002307480B50D078937897
:100BBC001B0443EA0063507843EA00231278134382
:100BCC00024A8B50704700BF408002404480024074
:100BDC0030B4002208E0C468DC6051F80C3043F4F7
:100BEC00400341F80C300132032A1FD8C16802EBD4
:100BFC0082034FEAC30C01EBC303002441F80C4001
:100C0C005C609C60DC60941D40F8243051F80C4012
:100C1C0044F4801441F80C40022ADCD8541C04EB38
:100C2C008404C56805EBC404DC60D6E7002383624A
:100C3C00C268036803F580531A6130BC704700B575
:100C4C004FF0000E03E00269DA600EF1010EBEF106
:100C5C00030F29D801690EEB8E034FEAC30C01EB8D
:100C6C00C303002241F80C205A609A60DA601A62C1
:100C7C005A624FF0004241F80C2044F2F8525A608C
:100C8C005A6822F000425A600EF1120240F82230EB
:100C9C00BEF1020FD7D801690EF1010202EB8202FC
:100CAC0001EBC202DA60D0E70023C36503668366FA
:100CBC00C36683650269036803F58053DA605DF8E7
:100CCC0004FB000070B505460C46026813683149F8
:100CDC001940237C002B55D14FF40003607C002875
:100CEC0052D14FF480000343A0680343E07F43EAF2
:100CFC00004360690343A07F002847D14FF40050A4
:100D0C000343207F43EA0033A0690343207943EA7D
:100D1C00802394F8200000283AD14FF4007003434C
:100D2C00E07B43EAC013606A034394F8280043EA6B
:100D3C0000130B4313602B681E680120FFF7BEFEE7
:100D4C002B681E6029688A6922F0BE021204120CFC
:100D5C00A06C94F84C3043EA0043206D034394F8A4
:100D6C003000034394F85600034394F854000343B3
:100D7C0013438B612B689C690120FFF79FFE2B6846
:100D8C009C6170BD0023A9E70020ACE70020B7E709
:100D9C000020C4E70F8120FF70B505460C460268A1
:100DAC0002F580539B692B491940237B002B4DD1B5
:100DBC004FF08063607B43EA4063607F002847D13B
:100DCC004FF480100343A07B43EA40536069034314
:100DDC00207F43EAC013A07F43EA8013206A0343B9
:100DEC0094F8240043EA80030B4302F5805293618C
:100DFC002B6803F580539E690120FFF75FFE2B687B
:100E0C0003F580539E612279A36843EA4263A26989
:100E1C0013432269134394F8252043EAC213A26AB0
:100E2C0043EA8203226813432A6843F4000302F561
:100E3C00805213602B6803F580531C680120FFF768
:100E4C003DFE2B6803F580531C6070BD0023B1E799
:100E5C000020B7E7233FDEF870B5A4B006460125A5
:100E6C008DF83C508DF83D5000240D948DF84B407E
:100E7C008DF84A508DF848408DF830508DF84C4024
:100E8C008DF83B4014948DF854401D948DF87840A7
:100E9C001F948DF882408DF880404FF4804310935E
:100EAC004FF4006311938DF85C400BA9FFF70AFF18
:100EBC008DF80C508DF80D508DF81D508DF80E508E
:100ECC0005948DF81C408DF81E4008948DF8245024
:100EDC008DF804504FF4803302934FF48003069343
:100EEC004FF4005304938DF825500A9400946946EE
:100EFC003046FFF751FF24B070BD0000002857D0DA
:100F0C0030B583B00446D0F88430002B34D00023A5
:100F1C000193284B5A6C42F480425A645B6C03F484
:100F2C0080430193019B244B5A6822F400025A60BF
:100F3C005A68A1680A435A605B68236803F58053BA
:100F4C001A6842F001021A60FFF7B2FD05462368E9
:100F5C0003F580531B6813F0010F13D0FFF7A8FDA6
:100F6C00401BB0F5FA7FF2D90423C4F88830E02393
:100F7C00C4F88430012019E02323C0F88430FFF733
:100F8C002BFCC4E72046FFF767FF2046FFF720FE47
:100F9C002046FFF754FE626800212046FFF700FE52
:100FAC000020C4F888001023C4F8843003B030BD8E
:100FBC0001207047003802400038014000230F2BFD
:100FCC0000F2F18070B582B061E085685E000324A8
:100FDC00B44025EA0405CC68B4402C4384604568D1
:100FEC0025EA02054C68C4F300129A402A43426079
:100FFC005BE0DC08083450F8246003F0070295002D
:10100C000F22AA4026EA020E0A69AA4042EA0E0200
:10101C0040F824205DE0092200E0002202FA0EF2E2
:10102C002A430234604D45F82420604A94686FEAE4
:10103C000C0224EA0C054E6816F4801F01D04CEA11
:10104C0004055A4CA560E46802EA04054E6816F4DF
:10105C00001F01D04CEA0405544CE560646802EAB8
:10106C0004054E6816F4003F01D04CEA04054F4CC1
:10107C006560246822404D6815F4803F01D04CEA2D
:10108C0004024A4C226001330F2B00F28A800122A9
:10109C009A400C6804EA020C32EA0404F3D14C685E
:1010AC0004F00304013C012C8FD94A6802F00302BE
:1010BC00032A09D0C4685D000322AA4024EA020472
:1010CC008A68AA402243C2604A6802F00302022ADC
:1010DC008FD004684FEA430E032202FA0EF224EA80
:1010EC0002044A6802F0030202FA0EF22243026082
:1010FC004A6812F4403FC6D0002201922C4A546C2C
:10110C0044F480445464526C02F480420192019A7B
:10111C009C08A51C244A52F8255003F003024FEA00
:10112C00820E0F2202FA0EF225EA0205214A9042A3
:10113C003FF473AF02F58062904222D002F58062D8
:10114C00904220D002F5806290421ED002F580625F
:10115C0090421CD002F5806290421AD002F5806257
:10116C00904218D002F58062904216D002F580624F
:10117C00904214D002F5806290423FF44CAF0A22A8
:10118C004CE701224AE7022248E7032246E7042201
:10119C0044E7052242E7062240E707223EE7082201
:1011AC003CE702B070BD704700380140003C014084
:1011BC0000380240000002400AB181617047090406
:1011CC0081617047436901EA030221EA030141EAA4
:1011DC0002418161704770B58AB0002800F09080A0
:1011EC000546046890F8BD343BB3032385F8BD3441
:1011FC00E36B13F4807F01D100232B61286800F08E
:10120C00E2FC2C4654F8106BEC460FCCACE80F000B
:10121C000FCCACE80F0094E803008CE803002B1D06
:10122C000ECB304600F08AFC044658B1022385F8F8
:10123C00BD34012420460AB070BD80F8BC34FFF7E1
:10124C0091FBD2E70021286800F0F4FD234616E05C
:10125C0003EBC30205EB8202012182F83D1082F8F8
:10126C003C30A2F84430002182F840109164D164E3
:10127C0003EBC30205EB820251650133DBB26968F3
:10128C008B42E5D316E004EBC40305EB8303002289
:10129C0083F87D2283F87C4283F88022C3F888226D
:1012AC00C3F88C2204EBC40305EB8303C3F894222C
:1012BC000134E4B2A142E6D82C4654F8106BEC464B
:1012CC000FCCACE80F000FCCACE80F0094E8030097
:1012DC008CE803002B1D0ECB304600F0D1FC0446ED
:1012EC0020B1022385F8BD340124A3E7002385F83F
:1012FC003830012385F8BD34286800F089FD99E762
:10130C00012497E7002800F0E08170B582B0044614
:10131C00036813F0010F3BD09F4B9B6803F00C0349
:10132C00042B2CD09C4B9B6803F00C03082B21D076
:10133C006368B3F5803F4FD0B3F5A02F52D0964BD6
:10134C001A6822F480321A601A6822F480221A6019
:10135C006368002B50D0FFF7ABFB05468E4B1B6828
:10136C0013F4003F14D1FFF7A3FB401B6428F5D9FD
:10137C000320B1E1884B5B6813F4800FD8D0864B07
:10138C001B6813F4003F03D06368002B00F09F81AF
:10139C00236813F0020F54D07F4B9B6813F00C0F93
:1013AC003ED07D4B9B6803F00C03082B33D0E368D5
:1013BC00002B68D0794B01221A60FFF779FB0546A8
:1013CC00754B1B6813F0020F54D1FFF771FB401BD8
:1013DC000228F5D903207FE16F4A136843F4803368
:1013EC001360B5E76C4B1A6842F480221A601A68D5
:1013FC0042F480321A60ABE7FFF75AFB0546664BA6
:10140C001B6813F4003FC3D0FFF752FB401B64284A
:10141C00F5D9032060E1604B5B6813F4800FC6D1F3
:10142C005D4B1B6813F0020F03D0E368012B40F0F7
:10143C005081594A136823F0F803216943EAC10328
:10144C001360236813F0080F42D063696BB3534BDE
:10145C000122C3F8802EFFF72BFB05464E4B5B6F2A
:10146C0013F0020F34D1FFF723FB401B0228F5D9F0
:10147C00032031E1484A136823F0F803216943EA59
:10148C00C1031360DDE7454B00221A60FFF710FB28
:10149C000546414B1B6813F0020FD2D0FFF708FB37
:1014AC00401B0228F5D9032016E13C4B0022C3F85F
:1014BC00802EFFF7FDFA0546374B5B6F13F0020FDA
:1014CC0006D0FFF7F5FA401B0228F5D9032003E1FB
:1014DC00236813F0040F77D02F4B1B6C13F0805F35
:1014EC0033D1002301932C4B1A6C42F080521A64B6
:1014FC001B6C03F080530193019B0125284B1B6847
:10150C0013F4807F23D0A368012B34D0052B38D063
:10151C00214B1A6F22F001021A671A6F22F0040293
:10152C001A67A368002B3DD0FFF7C2FA06461A4B88
:10153C001B6F13F0020F46D1FFF7BAFA801B41F272
:10154C0088339842F3D90320C6E00025D6E7144A25
:10155C00136843F480731360FFF7AAFA0646104B26
:10156C001B6813F4807FCED1FFF7A2FA801B0228F0
:10157C00F5D90320B0E0084A136F43F00103136759
:10158C00CFE7054B1A6F42F004021A671A6F42F04C
:10159C0001021A67C5E700BF00380240000047424D
:1015AC0000700040FFF784FA0646524B1B6F13F095
:1015BC00020F08D0FFF77CFA801B41F28833984267
:1015CC00F3D9032088E0EDB9A369002B00F08380E8
:1015DC00484A926802F00C02082A51D0022B17D00C
:1015EC00454B00221A66FFF763FA0446414B1B6811
:1015FC0013F0007F42D0FFF75BFA001B0228F5D9ED
:10160C00032069E03B4A136C23F080531364DBE73F
:10161C00394B00221A66FFF74BFA0546354B1B680F
:10162C0013F0007F06D0FFF743FA401B0228F5D9D0
:10163C00032051E0E369226A1343626A43EA82138E
:10164C00A26A5208013A43EA0243E26A43EA02639D
:10165C00284A5360284B01221A66FFF729FA0446E0
:10166C00244B1B6813F0007F06D1FFF721FA001BF7
:10167C000228F5D903202FE000202DE000202BE0DC
:10168C00012B2BD01B4B5B6803F48001E269914268
:10169C0026D103F03F02216A8A4223D1616A47F6C0
:1016AC00C0721A40B2EB811F1ED103F44031A26A02
:1016BC005208013AB1EB024F18D103F07063E26AA1
:1016CC00B3EB026F14D1002006E00120704701201B
:1016DC0002E0012000E0002002B070BD0120FBE719
:1016EC000120F9E70120F7E70120F5E70120F3E7F6
:1016FC000120F1E7003802400000474208B5314BA9
:10170C009B6803F00C03042B57D0082B57D12D4B9F
:10171C005A6802F03F025B6813F4800F2AD0294B01
:10172C005968C1F3881C4FEA4C11B1EB0C006EEBFD
:10173C000E0E4FEA8E1343EA90638101091A63EB94
:10174C000E03DB0043EA5173C90011EB0C0C43F19F
:10175C000003590200234FEA4C2041EADC51FEF70A
:10176C003FFD184B5B68C3F3014301335B00B0FBD7
:10177C00F3F025E0134B5968C1F3881C4FEA4C1168
:10178C00B1EB0C006EEB0E0E4FEA8E1343EA906336
:10179C008101091A63EB0E03DB0043EA5173C900A4
:1017AC0011EB0C0C43F10003990200234FEA8C203F
:1017BC0041EA9C51FEF714FDD3E7034800E00348CF
:1017CC0008BD00BF0038024000127A000024F4006B
:1017DC00002800F09B8070B50D4604464F4B1B68EB
:1017EC0003F00F038B4208D2CBB24C4A1370136830
:1017FC0003F00F038B4240F08B80236813F0020F31
:10180C0017D013F0040F04D0454A936843F4E05307
:10181C009360236813F0080F04D0414A936843F493
:10182C00604393603E4A936823F0F003A1680B4336
:10183C009360236813F0010F32D06368012B21D021
:10184C009A1E012A25D9364A126812F0020F61D06D
:10185C0033498A6822F0030213438B60FFF728F99F
:10186C0006462F4B9B6803F00C036268B3EB820FA8
:10187C0016D0FFF71DF9801B41F288339842F0D93E
:10188C00032042E0264A126812F4003FE0D1012006
:10189C003BE0234A126812F0007FD9D1012034E0DA
:1018AC001E4B1B6803F00F03AB4207D9EAB21B4B6C
:1018BC001A701B6803F00F03AB422DD1236813F091
:1018CC00040F06D0164A936823F4E053E1680B43E7
:1018DC009360236813F0080F07D0114A936823F420
:1018EC006043216943EAC1039360FFF707FF0C4B88
:1018FC009B68C3F303130B4AD35CD8400A4B1860A4
:10190C000A4B1868FFF788F8002070BD012070475B
:10191C000120FAE70120F8E70120F6E7003C02403D
:10192C0000380240681F000800000020080000205A
:10193C00014B1868704700BF0000002008B5FFF786
:10194C00F7FF044B9B68C3F38223034AD35CD84054
:10195C0008BD00BF00380240781F000808B5FFF72B
:10196C00E7FF044B9B68C3F34233034AD35CD84074
:10197C0008BD00BF00380240781F000838B5044687
:10198C000268136923F44053C1680B4313618368E5
:10199C000269134342691343C2691A430168CB6855
:1019AC0023F4164323F00C031343CB6002685369F2
:1019BC0023F4407381690B4353610368314A9342AA
:1019CC0006D002F58062934202D0FFF7B7FF01E028
:1019DC00FFF7C4FFE369B3F5004F29D000210318CA
:1019EC0049411B1841F10001C90041EA5371DB0068
:1019FC00181863684FEA83024FEA937341F10001B0
:101A0C00FEF7EEFB204DA5FB00325109642303FBCE
:101A1C0011031B013233A5FB03235B0903F0F00216
:101A2C0002EB011203F00F03216813448B6038BDE5
:101A3C000023021843EB0301121841F10001C90005
:101A4C0041EA5271D200101841F1000162689218FB
:101A5C005B41FEF7C5FB0C4DA5FB0032510964231D
:101A6C0003FB1103DB003233A5FB03235B095A0094
:101A7C0002F4F87202EB011203F00703216813441D
:101A8C008B60D4E7001001401F85EB5158B310B5A3
:101A9C00044690F83D300BB3242384F83D30226883
:101AAC00D36823F40053D3602046FFF767FF226806
:101ABC00136923F4904313612268536923F02A03BA
:101ACC0053612268D36843F40053D3600020206430
:101ADC00202384F83D3084F83E3010BD80F83C3033
:101AEC00FEF708FFD8E701207047000082B0002302
:101AFC000193019B01330193019A0F4B9A4215D824
:101B0C000369002BF5DA00230193036943F0010309
:101B1C000361019B01330193019A074B9A4208D848
:101B2C00036913F0010FF4D1002000E0032002B090
:101B3C0070470320FBE700BF400D030084B010B5D5
:101B4C00044603A880E80E00089B012B1FD1A36B51
:101B5C0023F48033A363E36823F4840323F040036A
:101B6C00E360E36823F44013E3600F9B012B09D07F
:101B7C002046FFF7BBFF069B012B1BD0BDE8104096
:101B8C0004B07047E36843F48013E360F0E7E36864
:101B9C0043F04003E3602046FFF7A8FF0C9B23B9FA
:101BAC00A36B43F48033A363E5E7A36B23F4803387
:101BBC00A363E0E7A36843F00603A360A36843F0C4
:101BCC002003A360DAE7836823F00103836000201D
:101BDC007047000082B000230193019B01330193F5
:101BEC00019A0F4B9A4215D80369002BF5DA0023A2
:101BFC000193890141F020010161019B01330193A3
:101C0C00019A074B9A4208D8036913F0200FF4D1BC
:101C1C00002000E0032002B070470320FBE700BF68
:101C2C00400D030082B000230193019B013301930B
:101C3C00019A0E4B9A4213D80369002BF5DA002354
:101C4C00019310230361019B01330193019A074B0C
:101C5C009A4208D8036913F0100FF4D1002000E069
:101C6C00032002B070470320FBE700BF400D0300C8
:101C7C00D0F800381943C0F8001800207047000055
:101C8C0084B02DE9F041044607A880E80E0000233B
:101C9C0006E003F1400204EB8202002151600133A3
:101CAC000E2BF6D9119F27BBD4F8043843F002034E
:101CBC00C4F80438A36B43F40013A363A36B23F49D
:101CCC000023A363A36B23F48023A3630023C4F832
:101CDC00003E04F50065D4F80038C4F800380C9BBD
:101CEC00012B14D1099B6BB900212046FFF7C0FFD3
:101CFC0011E0A36B23F40013A363A36B43F4002341
:101D0C00A363E3E701212046FFF7B2FF03E00321C1
:101D1C002046FFF7ADFF10212046FFF75BFF804602
:101D2C0008B14FF001082046FFF77CFF08B14FF0D7
:101D3C00010800232B616B61EB610AE0C3B94FF022
:101D4C000060C2F8000900220A614FF67F328A60F7
:101D5C0001330799994210D904EB431202F5106133
:101D6C00D2F800090028E9DB0020C2F80009EAE7F4
:101D7C004FF09040C2F80009E5E700230AE0C3B138
:101D8C004FF0904CC2F800CB002202614FF67F322C
:101D9C0082600133994211D904EB431202F5306091
:101DAC00D2F8006B002EEADB4FF0000CC2F800CB2F
:101DBC00EAE74FF0006CC2F800CBE5E72B6923F49F
:101DCC0080732B610023A3616FF0804363610A9BD6
:101DDC001BB9A36943F01003A361A2690B4B134316
:101DEC00A3610D9B1BB1A36943F00803A361012FF1
:101DFC0004D04046BDE8F04104B07047A36943F0FD
:101E0C00804343F00403A361F3E700BF00383C8038
:101E1C00D0F8003E23F00303C0F8003ED0F804389D
:101E2C0043F00203C0F8043800207047406900F00A
:101E3C000100704738B50546C36823F0C043C36042
:101E4C00012913D019BBC36843F08043C36000243D
:101E5C000120FEF733FE01342846FFF7E7FF08B1F7
:101E6C00312CF5D9322C14D0002038BDC36843F086
:101E7C000053C36000240120FEF720FE01342846E5
:101E8C00FFF7D4FF0128EDD0312CF4D9EAE701207B
:101E9C00EBE70120E9E70000DFF834D00D480E49EC
:101EAC000E4A002302E0D458C4500433C4188C42A8
:101EBC00F9D30B4A0B4C002301E013600432A2420D
:101ECC00FBD3FEF79FFD00F011F8FEF74FFC7047B7
:101EDC0000000320000000200C000020901F0008D0
:101EEC000C000020AC070020FEE7000070B50D4D83
:101EFC000D4C641BA4100026A64209D10B4D0C4CB2
:101F0C0000F020F8641BA4100026A64205D170BD79
:101F1C0055F8043B98470136EEE755F8043B9847D3
:101F2C000136F2E7881F0008881F0008881F000888
:101F3C008C1F000802440346934200D1704703F8FB
:101F4C00011BF9E7F8B500BFF8BC08BC9E4670470A
:0C1F5C00F8B500BFF8BC08BC9E467047FA
:101F68000000000000000000010203040607080941
:081F7800000000000102030457
:081F80009CE2FF7F010000005C
:041F8800D10100087B
:041F8C00AD0100089B
:0C1F90000024F40001000000100000001C
:0400000508001EA52C
:00000001FF
